{
    "contractName": "Test",
    "abi": [
        {
            "inputs": [],
            "name": "addNumber",
            "outputs": [
                {
                    "internalType": "uint256",
                    "name": "",
                    "type": "uint256"
                }
            ],
            "stateMutability": "view",
            "type": "function"
        },
        {
            "inputs": [
                {
                    "internalType": "uint256",
                    "name": "value",
                    "type": "uint256"
                }
            ],
            "name": "addNumber2",
            "outputs": [
                {
                    "internalType": "uint256",
                    "name": "",
                    "type": "uint256"
                }
            ],
            "stateMutability": "nonpayable",
            "type": "function"
        },
        {
            "inputs": [
                {
                    "internalType": "uint256",
                    "name": "",
                    "type": "uint256"
                }
            ],
            "name": "arr",
            "outputs": [
                {
                    "internalType": "uint256",
                    "name": "",
                    "type": "uint256"
                }
            ],
            "stateMutability": "view",
            "type": "function"
        },
        {
            "inputs": [
                {
                    "internalType": "uint256",
                    "name": "",
                    "type": "uint256"
                }
            ],
            "name": "array",
            "outputs": [
                {
                    "internalType": "uint256",
                    "name": "",
                    "type": "uint256"
                }
            ],
            "stateMutability": "view",
            "type": "function"
        },
        {
            "inputs": [],
            "name": "getAray",
            "outputs": [
                {
                    "internalType": "uint256[]",
                    "name": "",
                    "type": "uint256[]"
                }
            ],
            "stateMutability": "nonpayable",
            "type": "function"
        }
    ],
    "bytecode": "61012060405260016080908152600260a052600360c052600460e052600561010081905261002f9160009161007b565b506040805160a08101825260018152600260208201526003918101919091526004606082015260056080820181905261006891816100be565b5034801561007557600080fd5b50610112565b82600581019282156100ae579160200282015b828111156100ae578251829060ff1690559160200191906001019061008e565b506100ba9291506100fd565b5090565b8280548282559060005260206000209081019282156100ae57916020028201828111156100ae578251829060ff1690559160200191906001019061008e565b5b808211156100ba57600081556001016100fe565b610264806101216000396000f3fe608060405234801561001057600080fd5b50600436106100575760003560e01c806338d941931461005c578063691ad41d1461008257806371e5ee5f14610091578063ba65a523146100a4578063d2e05f1a146100ac575b600080fd5b61006f61006a366004610173565b6100f3565b6040519081526020015b60405180910390f35b6060604051610079919061018c565b61006f61009f366004610173565b610114565b61006f61012b565b61006f6100ba366004610173565b6005805460018101825560008290527f036b6384b5eca791c62761152d0c79bb0604c104a5fb6f4eb0703f3154bb3db001919091555490565b6005818154811061010357600080fd5b600091825260209091200154905081565b6000816005811061012457600080fd5b0154905081565b60008060005b600581101561016d576000816005811061014d5761014d6101d0565b015461015990836101fc565b91508061016581610215565b915050610131565b50919050565b60006020828403121561018557600080fd5b5035919050565b6020808252825182820181905260009190848201906040850190845b818110156101c4578351835292840192918401916001016101a8565b50909695505050505050565b634e487b7160e01b600052603260045260246000fd5b634e487b7160e01b600052601160045260246000fd5b8082018082111561020f5761020f6101e6565b92915050565b600060018201610227576102276101e6565b506001019056fea2646970667358221220da15c27b7cd74fd4669e17318e66729d098d522fd37f14b56850735da71e654964736f6c63430008130033",
    "sourcePath": "c:/GitHub/Blockchain-Development-Course/3. Solidity In Depth/Test Contract.sol",
    "compiler": {
        "name": "solc",
        "version": "0.8.19+commit.7dd6d404"
    },
    "functionHashes": {
        "addNumber()": "ba65a523",
        "addNumber2(uint256)": "d2e05f1a",
        "arr(uint256)": "71e5ee5f",
        "array(uint256)": "38d94193",
        "getAray()": "691ad41d"
    },
    "gasEstimates": {
        "creation": {
            "codeDepositCost": "122400",
            "executionCost": "infinite",
            "totalCost": "infinite"
        },
        "external": {
            "addNumber()": "infinite",
            "addNumber2(uint256)": "48769",
            "arr(uint256)": "2429",
            "array(uint256)": "4542",
            "getAray()": "infinite"
        }
    }
}